:0400000009EF01F013
:100008005D82FACF18F0FBCF19F0E9CF1AF0EACFEA
:100018001BF0E1CF1CF0E2CF1DF0D9CF1EF0DACFF4
:100028001FF0F3CF20F0F4CF21F0F6CF22F0F7CF76
:1000380023F0F8CF24F0F5CF25F05DC026F05EC0A0
:1000480027F05FC028F060C029F0F0B6F0A0ABD070
:10005800F090620E4CEC21F02B6E2BA011D0469044
:1000680046BC469C000E01012A6F000E296F46A26D
:1000780007D0480E4CEC21F02A6E2AB046844692EE
:100088002BA68AD02D68000E2E6E010E2E6401D08C
:1000980010D02E50500D280EF324D96E020EF420E5
:1000A800DA6EDF50D8A403D02EC02DF002D02E2A4D
:1000B800ECD7020E2D606BD0040E036E730E61EC4C
:1000C80021F02D50500D280EF324D96E020EF42085
:1000D800DA6E030E046E000E036E45EC20F0020F7C
:1000E800DF6E2D50500D280EF324D96E020EF42029
:1000F800DA6E4F0EDF6040D0468A010E2E6E1AD09F
:100108002D50500D280E136E020E146EF350132648
:10011800F45014222E501324D96E000E1420DA6ED7
:10012800000E2E24036E046A030E042245EC20F010
:10013800DF6E2E2A2E50136E146A2D50500D280E85
:10014800F324D96E020EF420DA6EDF50156E166AAB
:10015800020E1526000E16221350155C1650800A42
:10016800176E1450800A1758D8B0CAD7010E036EFC
:100178001B0E61EC21F005D0010E036E1B0E61EC25
:1001880021F0000E036E730E61EC21F005D0010E14
:10019800036E1B0E61EC21F02BA805D0800E036EB8
:1001A800590E61EC21F09EB09DA007D09E90472A81
:1001B8004750D8A402D00101302BC9EC21F029C046
:1001C80060F028C05FF027C05EF026C05DF025C053
:1001D800F5FF24C0F8FF23C0F7FF22C0F6FF21C0B7
:1001E800F4FF20C0F3FF1FC0DAFF1EC0D9FF1DC0F7
:1001F800E2FF1CC0E1FF1BC0EAFF1AC0E9FF19C0FB
:10020800FBFF18C0FAFF5D921100B4EF1CF081ECFF
:100218000AF00009D8B49BEF09F041B41200000EAF
:100228000101006F2FA404D00001B06BB02B02D0E5
:100238000001B06B010100510001B019FC0BB019AD
:100248000101006F2FA602D0008702D0010100979C
:100258002F50030BE806D8A404D00001B06BB02BD4
:1002680002D00001B06BB03BB04701010051000162
:10027800B019DF0BB0190101006F2FAE02D0008D4D
:1002880002D00101009D2FAE0AD037B002D0009FE6
:1002980002D00101008F30C003F131C004F138C031
:1002A80001F139C002F136C009F135C008F14194B5
:1002B8008CEF09F00A0E346002D098EF09F020EEB6
:1002C80002F03250D9263350DA22DF500001CD6FC8
:1002D80020EE03F03250D9263350DA22DF50CE6FA9
:1002E80020EE04F03250D9263350DA22DF50D06F96
:1002F80020EE05F03250D9263350DA22DF50D16F84
:1003080020EE06F03250D9263350DA22DF50D26F71
:1003180020EE07F03250D9263350DA22DF50D36F5F
:1003280020EE08F03250D9263350DA22DF50D56F4C
:1003380020EE09F03250D9263350DA22DF50D66F3A
:10034800000E0101006F2FA602D0008702D0010124
:1003580000970051030B0009D8A406D00001D0294A
:1003680002E1D129D8A4FDD056500001D5190CE1DD
:100378005750D619D8A408D05450D21905E1555071
:10038800D319D8B498EF09F032C0D9FF33C0DAFFD7
:10039800010EDF643FD032C0D9FF33C0DAFFDF0679
:1003A800000E4C6E000ED86F14D0D851010DF350CA
:1003B8003224D96EF4503320DA6E4C50010D8E0E73
:1003C800F324E16E010EF420E26EDFCFE7FF4C2A42
:1003D800D82B3450D85DD8A0E8D72FC03AF054C0F5
:1003E8003FF055C040F037C03EF0140EDBEC1BF078
:1003F80020EE3AF000EE7EF0060EDBCFEBFFE806CB
:10040800FCE28E0E0001856F010E866F4CC087F0EE
:10041800DAEC11F0000E0001D86F030ED86501D098
:1004280036D0D851080D030EF326000EF422000E24
:10043800F324D96E020EF420DA6EDF50D8B425D03A
:10044800D851080D000EF324D96E020EF420DA6E8E
:10045800D551DE181AE1D651DE18D8A416D020EEF0
:100468000AF03250D9263350DA22D851080D020E3C
:10047800F326000EF422000EF324E16E020EF4209F
:10048800E26EDE50E618D8B402D0D82BC6D7040ED8
:10049800D86102D098EF09F0000ED86F030ED86526
:1004A80001D011D0D851080D030EF326000EF42206
:1004B800000EF324D96E020EF420DA6EDF50D8B4A1
:1004C80002D0D82BEBD7040ED86145D0D851080DEF
:1004D800000EF324D96E020EF420DA6ED5C0DEFFCA
:1004E800D6C0DDFF20EE0AF03250D9263350DA228A
:1004F800D851080D020EF326000EF422000EF32444
:10050800E16E020EF420E26EDFCFE7FFD851080D4E
:10051800030EF326000EF422000EF324D96E020E09
:10052800F420DA6E030EDF6EC1EC1FF00001D85123
:10053800080D040EF326000EF422000EF324D96EE3
:10054800020EF420DA6E60C0DEFF61C0DEFF62C01A
:10055800DEFF63C0DEFF01010051FC0B0109006FE3
:100568006FD054500001CD1903E15550CE19D8A4CD
:100578007AD25650D01903E15750D119D8A473D262
:1005880020EE01F03250D9263350DA22DFA458D0B9
:100598005CC08EF1020E01018F6FD2C090F1D3C002
:1005A80091F1D5C092F1D6C093F154C094F155C0E1
:1005B80095F156C096F157C097F120EE0AF03250E7
:1005C800D9263350DA22DF50986F000E996F300E1B
:1005D8009A6F0D0E4C6E57500001D619D8B40DD035
:1005E800D2C0A4F0D3C0A5F0D5C0A6F0D6C0A7F05D
:1005F800000EA86FC2EC0DF021D0000E3A6E3A8AB8
:10060800010E3D6E010E3E6ED50E3B6E000E3C6E29
:10061800D2C03FF0D3C040F020EE3AF000EE7EF0BA
:10062800060EDBCFEBFFE806FCE28E0E0001856FBD
:10063800010E866F4CC087F0DAEC11F001010085DD
:1006480020EE0BF03250D9263350DA22DF50D8A4EE
:10065800D0D120EE0CF03250D9263350DA22300EA9
:10066800DE18D8A49DD1ABD10101C1B340D0C1ECF3
:100678001FF060C0D7F161C0D8F162C0D9F163C082
:10068800DAF120EE08F03250D9263350DA22DF5062
:100698000101C36F20EE09F03250D9263350DA2217
:1006A800DF50C46F000E0001D76F070ED76501D069
:1006B80019D0D751B06FB16B0D0EB027000EB12312
:1006C800B0513224D96EB1513320DA6ED751010DB1
:1006D800C50EF324E16E010EF420E26EDFCFE7FFD2
:1006E800D72BE3D70101C183C19198EF09F020EE20
:1006F80008F03250D9263350DA22C351DE18D8A474
:100708000BD020EE09F03250D9263350DA22C451EA
:10071800DE18D8B498EF09F0C351C411D8A45BD03F
:10072800000E0001D76F070ED76501D02BD0D75127
:10073800B06FB16B0D0EB027000EB123B05132244B
:10074800D96EB1513320DA6ED751010DCF0EF32493
:10075800E16E010EF420E26EDFCFE7FFD751010D05
:10076800CF0EF324D96E010EF420DA6ED751010DA5
:10077800120EF324E16E010EF420E26EDFCFE7FFE4
:10078800D72BD1D720EE08F03250D9263350DA22B1
:10079800DF500101CD6F20EE09F03250D9263350D9
:1007A800DA22DF50CE6FCDC158F0CEC159F054C017
:1007B800DBF155C0DCF106EC1EF00101C26FC22965
:1007C800D8A483D08D0E4D6E58BE4D90C1EC19F053
:1007D8000101C26F7AD00B0E4C6E4C50010D8E0E7B
:1007E800F324D96E010EF420DA6E000EDF6E4C2A67
:1007F8004C50010D8E0EF324D96E010EF420DA6EE2
:10080800110EDF6E4C2A000E0001D76F070ED76558
:1008180001D02CD0D751B06FB16B0D0EB027000EA0
:10082800B123B0513224D96EB1513320DA6ED75189
:10083800010DCF0EF324E16E010EF420E26EDFCF3E
:10084800E7FFD751010DCF0EF324D96E010EF42026
:10085800DA6E4C50010D8E0EF324E16E010EF42079
:10086800E26EDFCFE7FF4C2AD72BD0D720EE08F077
:100878003250D9263350DA22DF500101CD6F20EEF5
:1008880009F03250D9263350DA22DF50CE6F4C505F
:10089800010D8E0EF324D96E010EF420DA6ECDC14F
:1008A800DFFF4C2A4C50010D8E0EF324D96E010E39
:1008B800F420DA6ECEC1DFFF4C2AC30E0001AE6F02
:1008C800010EAF6F3CEC1DF00101C183C18198EFAF
:1008D80009F0000E0001CC6F070ECC6501D019D0CD
:1008E800CC51B06FB16B0D0EB027000EB123B051D3
:1008F8003224D96EB1513320DA6ECC51010D120E6B
:10090800F324E16E010EF420E26EDFCFE7FFCC2B7B
:10091800E3D78D0E4D6E20EE15F03250D9263350A8
:10092800DA22DFBE4D9020EE15F03250D926335032
:10093800DA22DF50586E20EE16F03250D9263350A6
:10094800DA22DF50596E54C0DBF155C0DCF106ECF9
:100958001EF00101C26FC229D8B411D0C2510D0DC9
:100968000C0EF326000EF422330EF324D96E010E7A
:10097800F420DA6EDF504D6E4D844D8604D08D0E16
:100988004D6E58BE4D90C1EC19F00101C26FC229DD
:10099800D8B402D0C18101D0C191C19398EF09F0B8
:1009A80020EE0CF03250D9263350DA22DF50100AEC
:1009B800D8B45AD6010AD8B48CD798EF09F020EEEB
:1009C8000AF03250D9263350DA220101FC51DE18E0
:1009D800D8A498EF09F02B510001D51905E10101C0
:1009E8002C510001D619D8A498EF09F0419698EF38
:1009F80009F03450F50F0101076F0B0E3224056F13
:100A0800000E3320066FD2C001F1D3C002F120EEF0
:100A180008F03250D9263350DA22DE28D8A414D070
:100A280020EE09F03250D9263350DA22DE28D8A435
:100A38000BD037B002D0009F02D00101008F30C028
:100A480003F131C004F107D0008F080E3224036F80
:100A5800000E3320046F008D0751D8B498EF09F0C9
:100A6800418498EF09F032C0D9FF33C0DAFFDF5074
:100A7800D8B498EF09F032C0D9FF33C0DAFFDF06E7
:100A8800000E4C6E000E0001D86F14D0D851010D25
:100A9800F3503224D96EF4503320DA6E4C50010DE5
:100AA8008E0EF324E16E010EF420E26EDFCFE7FF35
:100AB8004C2AD82B3450D85DD8A0E8D75750D11934
:100AC800D8A42BD001019951D8A427D0300E9A1957
:100AD800D8A423D0000E3A6E3A8A010E3D6E010E5C
:100AE8003E6ED00E3B6E000E3C6ECDC03FF0CEC0C9
:100AF80040F020EE3AF000EE7EF0060EDBCFEBFF82
:100B0800E806FCE28E0E0001856F010E866F4CC070
:100B180087F0DAEC11F098EF09F0CDC0A4F0CEC060
:100B2800A5F0D0C0A6F0D1C0A7F0000E2FB6010ED8
:100B38000001A86FC2EC0DF0F7D3000E0001CA6FD8
:100B4800CA51B06FB16B040EB027000EB123B0517B
:100B58003224D96EB1513320DA6E4D0EDE18D8A486
:100B6800E3D320EE01F03050D9263150DA22DF509D
:100B7800C56FC5C0B0F0010EB16FB02B02D0D890D0
:100B8800B137B02FFCD70001B151BE6F30C0D9FFCB
:100B980031C0DAFFDF50D8A403D0BE5101013113B0
:100BA8000001CA51B06FB16B060EB027000EB12319
:100BB800B0513224D96EB1513320DA6EC551010DCE
:100BC800200EF324E16E020EF420E26EDFCFE7FF81
:100BD80041A0AAD338C0DBF139C0DCF130C0D9FF5D
:100BE80031C0DAFFDF50586E20EE01F03050D926C0
:100BF8003150DA22DF50596ECA51010DF3503224B8
:100C0800D96EF4503320DA6EDE28D8A48DD3CA51B9
:100C1800B06FB16B010EB027000EB123B051322472
:100C2800D96EB1513320DA6EDF50CB6F0A0E4E60A9
:100C38007BD3CB39030BB06F020EB06175D34E5026
:100C48000E0D000EF324D96E030EF420DA6E5AC08E
:100C5800DFFF4E500E0D0B0EF326000EF422000E91
:100C6800F324D96E030EF420DA6E08C1DFFF4E506C
:100C78000E0D0C0EF326000EF422000EF324D96E8E
:100C8800030EF420DA6E09C1DFFF4E500E0D090E77
:100C9800F326000EF422000EF324D96E030EF4207E
:100CA800DA6EDBC1DEFFDCC1DDFF4E500E0D0D0E2E
:100CB800F326000EF422000EF324D96E030EF4205E
:100CC800DA6E000EDF6E4E500E0D0D0EF326000E7E
:100CD800F422000EF324D96E030EF420DA6E030119
:100CE800DF8C0001CB31030BB06F4E500E0D0D0E93
:100CF800F326000EF422000EF324D96E030EF4201E
:100D0800DA6E0301DF500001B019FC0BB0190301C2
:100D1800DF6E0001CBA70ED04E500E0D0D0EF32640
:100D2800000EF422000EF324D96E030EF420DA6EBE
:100D38000301DF860001CB39030BB06F020EB061EF
:100D48000ED04E500E0D0D0EF326000EF422000E9E
:100D5800F324D96E030EF420DA6E0301DF8A03C18F
:100D6800D9FF04C1DAFF4E500E0D010EF326000E16
:100D7800F422000EF324E16E030EF420E26EDFCFBE
:100D8800E7FF010120EE01F00351D9260451DA22D0
:100D98004E500E0D020EF326000EF422000EF32420
:100DA800E16E030EF420E26EDFCFE7FF4E500E0D2A
:100DB8000D0EF326000EF422000EF324D96E030E56
:100DC800F420DA6E0301DF8E4E2AAED2000E000147
:100DD800C06F010E4F6401D0A7D2000ED86F070E66
:100DE800D86501D014D0D851010DF3503024D96EF4
:100DF800F4503120DA6ED851010D120EF324E16E51
:100E0800010EF420E26EDFCFE7FFD82BE8D7E9EC3C
:100E18001AF00001D46FD429D8A417D04F50D8A401
:100E280083D2B70E4D6E54C0DBF155C0DCF1C1EC76
:100E380019F00001D46FD429D8A428D0010EC06FAE
:100E4800FF0E596EFE0E586E8BD0D4510D0D0C0E40
:100E5800F326000EF422330EF324D96E010EF4208B
:100E6800DA6E0101DFA612D00001D4510D0D020E79
:100E7800F326000EF422330EF324D96E010EF4206B
:100E8800DA6EDECF58F0DDCF59F06AD00001D429F0
:100E9800D8B466D0D429586E57C059F054C0DBF185
:100EA80055C0DCF1020E4818D8A43CD020EE01F061
:100EB8003250D9263350DA22DFAC34D058C0BCF0D7
:100EC80059C0BDF0000E586E010ECF6F070ECF65EA
:100ED80001D01FD0CFC059F006EC1EF00001BF6F43
:100EE800BF29D8A413D0000E586ECFC059F0CFC078
:100EF800B0F0010EB16FB02B02D0D890B137B02F3F
:100F0800FCD70001B1510101311303D00001CF2BEF
:100F1800DDD7080E0001CF19D8A404D0BCC058F002
:100F2800BDC059F0BF0E4D6E20EE01F03250D926EB
:100F38003350DA22DFB002D04D90588EC1EC19F050
:100F48000001D46FD4510D0D0C0EF326000EF422BF
:100F5800330EF324D96E010EF420DA6E0101DF8816
:100F6800020E01018E6F58C08FF159C090F1C0C0B8
:100F780091F1040E4C6E540E00019D6F000E9E6F91
:100F8800D4510D0D040EF326000EF422330EF32473
:100F98009F6F010EF420A06F010EA16F000EA26FCB
:100FA80090EC1BF0C1D120EE03F03250D92633501B
:100FB800DA22DF50D8A47CD020EE01F03250D926B6
:100FC8003350DA22DF50566E20EE02F03250D92626
:100FD8003350DA22DF50576E5650D8A420D0010E75
:100FE800486E48C0B0F00001B0470101325100011D
:100FF800B019F90BB0190101326F57C0B0F0070EE4
:101008000001B017010EB16FB02B02D0D890B137E4
:10101800B02FFCD70001B129010131130ED0000E09
:10102800486E48C0B0F00001B047010132510001DC
:10103800B019F90BB0190101326F560E0001656F36
:10104800000E666F540E676F000E686F35EC1FF068
:101058004182BF0E4D6E000E0001D86F070ED86595
:1010680001D014D0D851010DF3503024D96EF4506A
:101078003120DA6ED851010D120EF324E16E010E03
:10108800F420E26EDFCFE7FFD82BE8D75650D8A47C
:1010980003D0000E596E02D057C059F0000E586E9A
:1010A80054C0DBF155C0DCF1C1EC19F04B6E3CD1FA
:1010B8004B685468556858685968580E0001656F40
:1010C800000E666F540E676F000E686F35EC1FF0E8
:1010D8002BD13750D8B416D030C0D9FF31C0DAFF81
:1010E800DF50586E20EE01F03050D9263150DA2208
:1010F800DF50596E06EC1EF00001C86FC829D8B43D
:1011080013D11ED0000E0001D86F070ED86501D08C
:1011180014D0D851010DF3503024D96EF450312039
:10112800DA6ED851010D120EF324E16E010EF4208F
:10113800E26EDFCFE7FFD82BE8D7E9EC1AF0DCD76F
:10114800C8510D0D0C0EF326000EF422330EF324B5
:10115800D96E010EF420DA6E0101DFAAE5D04B50FA
:101168000001C819D8B40FD0C8510D0D0C0EF326C4
:10117800000EF422330EF324D96E010EF420DA6E39
:10118800000EDF6ED1D0000ED86F060ED86501D0E4
:1011980083D0D8510D0D0C0EF326000EF422330E19
:1011A800F324D96E010EF420DA6E0101DFAE63D0AC
:1011B8000001D8510D0D0C0EF326000EF422330E4B
:1011C800F324D96E010EF420DA6E0101DFAA53D0A0
:1011D8004B500001D819D8B44ED0000E4C6E4C506C
:1011E800010D8E0EF324D96E010EF420DA6E030E73
:1011F800DF6E4C2A000E3A6E3A8A3A50FC0B01090F
:101208003A6E010E3D6E010E3E6ED8510D0D330E35
:10121800F324D96E010EF420DA6EDECF3FF0DDCF75
:1012280040F0D8510D0D020EF326000EF422330EB5
:10123800F3243B6E010EF4203C6E20EE3AF000EEF3
:101248007EF0060EDBCFEBFFE806FCE28E0E856F24
:10125800010E866F4CC087F0DAEC11F0000E000129
:10126800C76F000EC66FC6290F0EC759D8B003D076
:10127800C64BC72BF8D70001D8510D0D0C0EF3261D
:10128800000EF422330EF324D96E010EF420DA6E28
:10129800000EDF6ED82B79D74B68566857685468AC
:1012A8005568560E656F000E666F540E676F000E18
:1012B800686F35EC1FF0419237D0020E4F6401D0B1
:1012C80033D041A231D020EE01F03250D92633502C
:1012D800DA225A50DE18D8A427D04850D8B424D0DF
:1012E800140EDBEC1BF030EC1AF01ED032C0D9FF24
:1012F80033C0DAFFDF50010AD8B468D5030AD8B47E
:1013080052D6010AD8B4E5D6040AD8B4D6D70CD038
:101318002F50030B000AD8B45EEF01F0010AD8B4CD
:10132800E5D7020AD8B409D441A4A2EC21F0C1EC53
:101338001FF060C0C1F061C0C2F062C0C3F063C0FA
:10134800C4F0000E0001D86F030ED86501D052D04A
:10135800D851080D030EF326000EF422000EF324D4
:10136800D96E020EF420DA6EDF50D8B441D0D851CD
:10137800080D040EF326000EF422000EF324D96E95
:10138800020EF420DA6EDECFB0F0DECFB1F0DECFA1
:10139800B2F0DECFB3F0B01FB11FB21FB31FB02B36
:1013A800000EB123B223B323C151B025B46FC2518B
:1013B800B121B56FC351B221B66FC451B321B76F14
:1013C800B75108E1210EB45DA10EB559070EB65903
:1013D800D8A00ED0D851080D030EF326000EF42223
:1013E800000EF324D96E020EF420DA6E000EDF6EC2
:1013F800D82BAAD70101C1A31200C1A153D00B0E4B
:101408004C6E4C50010D8E0EF324D96E010EF42053
:10141800DA6E000EDF6E4C2A4C50010D8E0EF3244E
:10142800D96E010EF420DA6E110EDF6E4C2A000E12
:101438000001C96F070EC96501D015D0C951010D4A
:10144800C50EF324D96E010EF420DA6E4C50010D4E
:101458008E0EF324E16E010EF420E26EDFCFE7FF7B
:101468004C2AC92BE7D74C50010D8E0EF324D96EA8
:10147800010EF420DA6EC3C1DFFF4C2A4C50010D77
:101488008E0EF324D96E010EF420DA6EC4C1DFFF8C
:101498004C2ACD0EAE6F010EAF6F3CEC1DF0010172
:1014A800C1931200D7C1B0F0D8C1B1F0D9C1B2F020
:1014B800DAC1B3F00001B01FB11FB21FB31FB02BC8
:1014C800000EB123B223B323C151B025B86FC25166
:1014D800B121B96FC351B221BA6FC451B321BB6FE7
:1014E800BB5108E1610EB85DE30EB959160EBA5941
:1014F800D8A012000101C193120081A2F08046A079
:101508000FD001012A5104E1800E295DD8A006D030
:10151800000E2A6F000E296F469002D0294B2A2B05
:101528005B68000E0001676F010E676501D010D07F
:101538006751500D280EF324D96E020EF420DA6E8E
:10154800DF50D8B403D067C05BF002D0672BECD76C
:10155800020E5B6011D3010E686F5B50500D010ED7
:10156800F326000EF422280EF324D96E020EF4207E
:10157800DA6E0201DFBC03D0000E0001686F000EB6
:101588002F6E000E376E5B50500D020EF326000EC4
:10159800F422280EF324D96E020EF420DA6EDF50FE
:1015A800CC0B0001666F4DD25B50500D060EF32632
:1015B800000EF422280EF324D96E020EF420DA6EFF
:1015C800DE28D8A40FD05B50500D070EF326000E6E
:1015D800F422280EF324D96E020EF420DA6EDE28E7
:1015E800D8B42F842F8E6851D8B429D05B50500DB1
:1015F800040EF326000EF422280EF324D96E020EF0
:10160800F420DA6EDF50386E5B50500D050EF3266D
:10161800000EF422280EF324D96E020EF420DA6E9E
:10162800DF50396E5B50500D080EF326000EF42281
:10163800280EF324306E020EF420316E90D15B50E8
:10164800500D080EF326000EF422280EF324D96E4E
:10165800020EF420DA6EDF50386E5B50500D090E22
:10166800F326000EF422280EF324D96E020EF4207D
:10167800DA6EDF50396E5B50500D0A0E9ED15B500A
:10168800500D280EF324D96E020EF420DA6EDF50C6
:10169800EB0F346E5B50500D120EC5D12F8E685172
:1016A800D8B437D05B50500D040EF326000EF42248
:1016B800280EF324D96E020EF420DA6EDF50386E4D
:1016C8005B50500D050EF326000EF422280EF3246D
:1016D800D96E020EF420DA6EDF50396E5B50500D71
:1016E8000E0EF326000EF422280EF324306E020E9E
:1016F800F420316E5B50500D280EF324D96E020E83
:10170800F420DA6EDF50E70F346E5B50500D160E82
:101718008AD15B50500D0E0EF326000EF422280ECF
:10172800F324D96E020EF420DA6EDF50386E5B5067
:10173800500D0F0EF326000EF422280EF324D96E56
:10174800020EF420DA6EDF50396E5B50500D100E29
:10175800F326000EF422280EF324306E020EF42035
:10176800316E5B50500D280EF324D96E020EF42012
:10177800DA6EDF50E50F346E5B50500D180E53D102
:101788002F842F8E010E376E5B50500D040EF326FA
:10179800000EF422280EF324D96E020EF420DA6E1D
:1017A800DF50386E5B50500D050EF326000EF42204
:1017B800280EF324D96E020EF420DA6EDF50396E4B
:1017C8005B50500D060EF326000EF422280EF3246B
:1017D800306E020EF420316E5B50500D280EF3244B
:1017E800D96E020EF420DA6EDF50F50F18D15B5077
:1017F800500D060EF326000EF422280EF324D96E9F
:10180800020EF420DA6EDE28D8A40FD05B50500DFB
:10181800070EF326000EF422280EF324D96E020ECA
:10182800F420DA6EDE28D8B42F842F8E010E376E9E
:101838006851D8A437D05B50500D080EF326000E1F
:10184800F422280EF324D96E020EF420DA6EDF504B
:10185800386E5B50500D090EF326000EF422280E48
:10186800F324D96E020EF420DA6EDF50396E5B5025
:10187800500D0A0EF326000EF422280EF324306EC3
:10188800020EF420316E5B50500D280EF324D96EF1
:10189800020EF420DA6EDF50F10F346E5B50500DFB
:1018A8000C0EC1D05B50500D040EF326000EF4222E
:1018B800280EF324D96E020EF420DA6EDF50386E4B
:1018C8005B50500D050EF326000EF422280EF3246B
:1018D800D96E020EF420DA6EDF50396E5B50500D6F
:1018E800080EF326000EF422280EF324306E020EA2
:1018F800F420316E5B50500D280EF324D96E020E81
:10190800F420DA6EDF50F30F346E5B50500D0A0E80
:101918008AD02F8E010E376E6851D8B42FD05B5005
:10192800500D040EF326000EF422280EF324D96E6F
:10193800020EF420DA6EDF50386E5B50500D050E43
:10194800F326000EF422280EF324D96E020EF4209A
:10195800DA6EDF50396E5B50500D0D0E66D65B5057
:10196800500D280EF324D96E020EF420DA6EDF50E3
:10197800ED0F346E5B50500D100E55D05B50500D6E
:101988000D0EF326000EF422280EF324D96E020E53
:10199800F420DA6EDF50386E5B50500D0E0EF326D1
:1019A800000EF422280EF324D96E020EF420DA6E0B
:1019B800DF50396E5B50500D0F0EF326000EF422E7
:1019C800280EF324306E020EF420316E58D65B5088
:1019D800500D060EF326000EF422280EF324D96EBD
:1019E800020EF420DA6EDE28D8A40FD05B50500D1A
:1019F800070EF326000EF422280EF324D96E020EE9
:101A0800F420DA6EDE28D8B42F845B50500D280EEF
:101A1800F324D96E020EF420DA6EDF50F60F346E1E
:101A28005B50500D080EF326000EF422280EF32406
:101A3800326E020EF420336E19D0A2EC21F0000EA3
:101A4800120000016651080AD8B4C1D7880AD8B470
:101A580097D6080AD8B4CBD6040AD8B45AD7440AB9
:101A6800D8B4A2D5040AD8B419D6E7D75B50500D1C
:101A7800010EF326000EF422280EF324D96E020E6E
:101A8800F420DA6E0201DFA613D0A2EC21F0000EDA
:101A98001200FC0E2F162CD02F50FC0B01092F6EB4
:101AA80027D0030E2F1224D0A2EC21F0000E120032
:101AB8005B50500D010EF326000EF422280EF3247D
:101AC800D96E020EF420DA6EDF50070B0001606F4A
:101AD800616B6151000AD8A4E7D76051000AD8B4F5
:101AE800E0D7010AD8B4D5D7020AD8B4D5D7DCD7FD
:101AF800FF0E0001606FFF0E616F5B50500D280EE6
:101B0800F324D96E020EF420DA6EDF50626F636B35
:101B18006051622761516323280E646F020E656F5E
:101B280062516427635165235B50500DF35064255F
:101B3800D96EF4506521DA6EDF50366E5B50500D69
:101B4800280EF324D96E020EF420DA6EDF50606F8F
:101B58005B50500D280E616F020E626FF3506127C3
:101B6800F450622360516125D96E000E6221DA6E4D
:101B7800DF50356E010E1200000E12000001A75151
:101B8800070BAC6FAC515718D8A430D0800EA6659F
:101B980002D0000E1200000E3A6E3A8AA8B102D0A6
:101BA8003A9601D03A86A6C058F0A7C059F0010E5F
:101BB8003D6E010E3E6E580E3B6E000E3C6E54C0DC
:101BC8003FF055C040F020EE3AF000EE7EF0060EF1
:101BD800DBCFEBFFE806FCE28E0E0001856F010EFD
:101BE800866F4CC087F0DAEC11F01200ACC0A9F097
:101BF800010E0001AA6FA92B02D0D890AA37A92FED
:101C0800FCD70001AA51010131150009D8B47AD0D6
:101C18000001AC51010D0A0EF324D96E010EF42017
:101C2800DA6E020EDF6428D0AC51010D0A0EF324DF
:101C3800D96E010EF420DA6E000EDF6EACC0A9F08A
:101C4800010EAA6FA92B02D0D890AA37A92FFCD7CA
:101C58000001AA51FF0A010131170001AC51010D21
:101C6800200EF324D96E020EF420DA6E000EDF6E19
:101C780030EC1AF0000E1200000E3A6E3A8A00019B
:101C8800A8B102D03A9601D03A86000E586EACC080
:101C980059F0010E3D6E010E3E6E580E3B6E000E61
:101CA8003C6E54C03FF055C040F020EE3AF000EED4
:101CB8007EF0060EDBCFEBFFE806FCE28E0E00019D
:101CC800856F010E866F4CC087F0DAEC11F00009C1
:101CD800D8A40BD00001AC51010D0A0EF324D96E23
:101CE800010EF420DA6EDF2AC5D70001AC51010DD0
:101CF8000A0EF324D96E010EF420DA6E000EDF6EA0
:101D0800010E1200000E0001AD6F070EAD6501D087
:101D1800C5D0AD51010D200EF324D96E020EF4206A
:101D2800DA6EDF50A96FACC0AAF0010EAB6FAA2B18
:101D380002D0D890AB37AA2FFCD70001AB51A91518
:101D48000009D8B4A8D0AD51010D0A0EF324D96EFC
:101D5800010EF420DA6E020EDF6456D0AD51010D8B
:101D68000A0EF324D96E010EF420DA6E000EDF6E2F
:101D7800ADC0A9F0010EAA6FA92B02D0D890AA373E
:101D8800A92FFCD70001AA51FF0A01013117000150
:101D9800AD51010D200EF324D96E020EF420DA6E37
:101DA800000EDF6E4850D8B403D030EC1AF02AD0B9
:101DB800000E4C6E4C50010D8E0EF324D96E010EA0
:101DC800F420DA6E070EDF6E4C2A4C50010D8E0E91
:101DD800F324D96E010EF420DA6E5AC0DFFF4C2AC4
:101DE8000101DB69DC69DB0E00019D6F010E9E6F4E
:101DF800000E9F6F000EA06F010EA16F000EA26F64
:101E080090EC1BF0000E1200000E3A6E3A8A0001A8
:101E1800A8B102D03A9601D03A86000E586EADC0ED
:101E280059F0010E3D6E010E3E6E580E3B6E000ECF
:101E38003C6E54C03FF055C040F020EE3AF000EE42
:101E48007EF0060EDBCFEBFFE806FCE28E0E00010B
:101E5800856F010E866F4CC087F0DAEC11F000092F
:101E6800D8A40CD00001AD51010D0A0EF324D96E8F
:101E7800010EF420DA6EDF2A000E12000001AD51C7
:101E8800010D0A0EF324D96E010EF420DA6E000E4D
:101E9800DF6E010E12000001AD2B37D7020E481875
:101EA800D8B460D0000E3A6E3A8AA8B102D03A96F9
:101EB80001D03A864804D8B427D0000E0001AD6F8F
:101EC800070EAD6501D01AD001013151D8B413D035
:101ED800ADC0A9F0010E0001AA6F000EAB6FA92BCF
:101EE80003D0D890AA37AB37A92FFBD70001AA5146
:101EF800AB11D8A403D00001AD2BE2D7080EAD6119
:101F080003D0ADC059F002D0000E596E000E586EC5
:101F1800010E3D6E010E3E6E580E3B6E000E3C6E7D
:101F280054C03FF055C040F020EE3AF000EE7EF08D
:101F3800060EDBCFEBFFE806FCE28E0E0001856F94
:101F4800010E866F4CC087F0DAEC11F00009D8A4B6
:101F580004D001010A2B000E1200000E01010A6FC5
:101F6800010E1200000E3A6E3A8A0001A8B102D0A2
:101F78003A9601D03A86ACC059F0000E586E010E60
:101F88003D6E010E3E6E580E3B6E000E3C6E54C008
:101F98003FF055C040F020EE3AF000EE7EF0060E1D
:101FA800DBCFEBFFE806FCE28E0E0001856F010E29
:101FB800866F4CC087F0DAEC11F00009D8A404D081
:101FC80001010A2B000E1200000E01010A6F010E1A
:101FD80012004950D8B40BD001019951D8B407D098
:101FE80041864AC0FCF1060E0001F56F04D0020ECE
:101FF8000001F56F4196DB51D8B43CD1000EF66F65
:10200800070EF66501D014D0F651010DF350D9250D
:10201800D96EF450DA21DA6EF651010D120EF3245E
:10202800E16E010EF420E26EDFCFE7FFF62BE8D772
:10203800E9EC1AF00001F76FF729D8A43DD05CC08D
:102048008EF1020E01018F6F90699169926993690F
:1020580054C094F155C095F156C096F157C097F108
:102068004AC098F14A2A000E3A6E3A8A0001DCB159
:1020780002D03A9601D03A86D9C03BF0DAC03CF09B
:10208800000E3D6E010E3E6E54C03FF055C040F04C
:10209800419620EE3AF000EE7EF0060EDBCFEBFF25
:1020A800E806FCE28E0E0001856F010E866F4CC0BB
:1020B80087F0DAEC11F012000001F7510D0D0C0E4B
:1020C800F326000EF422330EF324D96E010EF42009
:1020D800DA6E0101DFA6B3D74950D8B411D0000198
:1020E800F7510D0D020EF326000EF422330EF324E1
:1020F800D96E010EF420DA6EDECF2BF1DDCF2CF194
:10210800040E01018E6FF5C08FF10001F7510D0D1E
:10211800330EF324D96E010EF420DA6EDF5001017C
:10212800906F0001F7510D0D010EF326000EF422F9
:10213800330EF324D96E010EF420DA6EDF5001015C
:10214800916F0001F7510D0D020EF326000EF422D7
:10215800330EF324D96E010EF420DA6EDF5001013C
:10216800926F0001F7510D0D030EF326000EF422B5
:10217800330EF324D96E010EF420DA6EDF5001011C
:10218800936F54C094F155C095F156C096F157C05D
:1021980097F14AC098F14A2A0001F7510D0D330E04
:1021A800F324D96E010EF420DA6EDECFA4F0DDCF71
:1021B800A5F0F7510D0D020EF326000EF422330E92
:1021C800F324D96E010EF420DA6EDECFA6F0DDCF4F
:1021D800A7F0DCC0A8F0C2EC0DF00009D8A402D02A
:1021E8004196120041A61200C1EC1FF060C0E5F054
:1021F80061C0E6F062C0E7F063C0E8F0E9EC21F006
:102208000009D8A40AEC22F041A61200C1EC1FF084
:1022180060C0E9F061C0EAF062C0EBF063C0ECF0C6
:10222800E5C0DDF0E6C0DEF0E7C0DFF0E8C0E0F0D2
:102238000001DD1FDE1FDF1FE01FDD2B000EDE2388
:10224800DF23E023E951DD25E16FEA51DE21E26F6A
:10225800EB51DF21E36FEC51E021E46FE45108E139
:10226800210EE15DA10EE259070EE359D8A0C6D7A9
:1022780041961200040E01018E6FF5C08FF154C013
:1022880090F155C091F1D9C0D9FFDAC0DAFFDF501B
:10229800926F000120EE01F0D951D926DA51DA22E5
:1022A800DF500101936F54C094F155C095F156C0A9
:1022B80096F157C097F14AC098F14A2AD9C0D9FF78
:1022C800DAC0DAFFDF502B6F000120EE01F0D951A0
:1022D800D926DA51DA22DF5001012C6FD9C0D9FF93
:1022E800DAC0DAFFDF50586E000120EE01F0D95154
:1022F800D926DA51DA22DF50596E54C0A4F055C0FD
:10230800A5F058C0A6F059C0A7F0DCC0A8F0C2ECF0
:102318000DF00009D8A402D04196120041A612007F
:10232800C1EC1FF060C0EDF061C0EEF062C0EFF0EC
:1023380063C0F0F0E9EC21F00009D8A40AEC22F01F
:1023480041A61200C1EC1FF060C0F1F061C0F2F0CC
:1023580062C0F3F063C0F4F0EDC0DDF0EEC0DEF073
:10236800EFC0DFF0F0C0E0F00001DD1FDE1FDF1F6F
:10237800E01FDD2B000EDE23DF23E023F151DD25F6
:10238800E16FF251DE21E26FF351DF21E36FF45187
:10239800E021E46FE45108E1210EE15DA10EE2596C
:1023A800070EE359D8A0C6D741961200000E0001C7
:1023B8009C6F000E9B6F7EA502D0010E816F7EA7D9
:1023C80002D0000E826F7E51030BE806D8A402D01B
:1023D800030E06D07E51030B0009D8A402D0010ECB
:1023E800996F525083190EE153508419D8A40AD01A
:1023F800522803E15328D8B405D0050E9A6F998D59
:10240800010E03D0070E9A6F000E986F8151D8B451
:1024180002D0020E01D0080E9A278251D8B402D0F9
:10242800020E01D0080E9A277EBB7EB501D0998B8B
:102438007E51030B030AD8A409D0000E996F070E2A
:102448009A6F000E986F010E826F7E9B9CC062F09F
:10245800636B9AC064F094EC1FF000019C2B9CC045
:1024680062F0636B9A518725646F94EC1FF000014A
:102478009C2B9CC062F0636B99C064F094EC1FF0D5
:1024880000019C2B7E51030B030AD8A413D09CC0D7
:1024980062F0636B800E646F94EC1FF000019C2B5C
:1024A8009CC062F0636B2FC164F094EC1FF00101D3
:1024B8002F2B80D08151D8B40BD08251D8B408D0FA
:1024C8009CC062F0636B880E646F94EC1FF023D09D
:1024D8008151D8B40BD08251D8A408D09CC062F0E6
:1024E800636BC80E646F94EC1FF015D08151D8A4AB
:1024F8000BD08205D8A408D09CC062F0636B8C0E08
:10250800646F94EC1FF007D09CC062F0636BCC0E34
:10251800646F94EC1FF000019C2B9CC062F0636B0D
:102528002FC164F094EC1FF001012F2B00019C2BAC
:102538009CC062F0636B83C064F094EC1FF00001F0
:102548009C2B9CC062F0636B84C064F094EC1FF019
:1025580000019C2B7EA511D09CC062F0636BFF0E1E
:10256800646F94EC1FF000019C2B9CC062F0636BBD
:10257800FF0E646F94EC1FF01DD08151D8B41DD0AC
:102588009CC062F0636B7FC0D9FF80C0DAFFDF5068
:10259800646F94EC1FF000019C2B9CC062F0636B8D
:1025A80020EE01F07F51D9268051DA22DF50646F86
:1025B80094EC1FF000019C2B19D0000E9B6F070EA6
:1025C8009B6501D013D09CC062F0636B9B51010DD9
:1025D800F3507F25D96EF4508021DA6EDF50646F96
:1025E80094EC1FF000019C2B9B2BE9D79851D8A4A1
:1025F80012D09CC062F0636B52C064F094EC1FF080
:1026080000019C2B9CC062F0636B53C064F094EC97
:102618001FF000019C2B8251D8B413D09CC062F0EB
:10262800636B50C064F094EC1FF000019C2B9CC0BD
:1026380062F0636B51C064F094EC1FF000019C2BB6
:102648001BD0000E9B6F070E9B6501D015D09CC058
:1026580062F0636B9B51010DF35001012725D96E80
:10266800F4502821DA6EDF500001646F94EC1FF0FB
:1026780000019C2B9B2BE7D7000E9B6F12D09CC0B0
:1026880062F0636B9B51010DF3508525D96EF450B0
:102698008621DA6EDF50646F94EC1FF000019C2BEA
:1026A8009B2B87519B5DD8A0EAD746807EBB7EB521
:1026B80004D0050E9B6F468203D0010E9B6F469295
:1026C8009BC062F0370E08EC21F0C1EC1FF060C02F
:1026D80090F061C091F062C092F063C093F081A263
:1026E800F08046B005D046A444D04694000E1200AF
:1026F800C1EC1FF060C094F061C095F062C096F024
:1027080063C097F090C088F091C089F092C08AF0B9
:1027180093C08BF00001881F891F8A1F8B1F882B8D
:10272800000E89238A238B23945188258C6F955119
:1027380089218D6F96518A218E6F97518B218F6FCA
:102748008F518E1106E1210E8C5D4E0E8D59D8A049
:10275800C6D781EC15F0500E0001656F000E666F4C
:10276800520E676F000E686F35EC1FF04690000E32
:102778001200010E12000101EE6F030E0101ED6F50
:102788000001F905D8A412D0AEEC16F006D0E9EC99
:1027980021F00009D8A40AEC22F00101C1B3F7D74F
:1027A800C1A102D0C2511200FF0E12000001F9515E
:1027B800D8A4A1D10101EE29D8B406D026D00101B0
:1027C800ED2F02D0FF0E12005AC0DDF1010EDE6FB0
:1027D800DF6BE06BE16BDD2B05D0D890DE37DF37A0
:1027E800E037E137DD2FF9D7DEC1D9F0DFC1DAF004
:1027F800E0C1DBF0E1C1DCF00A0ED7EC17F000090C
:10280800D8B4DDD7000E0101EE6FEE510E0D090EA2
:10281800F326000EF422000EF324D96E030EF420E2
:10282800DA6EDECFDBF1DDCFDCF1EE510E0D010EFD
:10283800F326000EF422000EF324D96E030EF420C2
:10284800DA6EDF50586EEE510E0D020EF326000EB2
:10285800F422000EF324D96E030EF420DA6EDF5052
:10286800596E06EC1EF04B6E4B28D8A408D0B6EC77
:1028780020F04B6E4B28D8A402D0FF0E12004B500C
:102888000D0D0C0EF326000EF422330EF324D96E30
:10289800010EF420DA6E000EDF6E0101EE510E0D0E
:1028A800090EF326000EF422000EF324D96E030E4F
:1028B800F420DA6E4B500D0D330EF324E16E010E49
:1028C800F420E26EDECFE6FFDDCFE5FFEE510E0D20
:1028D800010EF326000EF422000EF324D96E030E27
:1028E800F420DA6E4B500D0D020EF326000EF42282
:1028F800330EF324E16E010EF420E26EDFCFE7FF22
:10290800EE510E0D020EF326000EF422000EF324F3
:10291800D96E030EF420DA6E4B500D0D030EF3261C
:10292800000EF422330EF324E16E010EF420E26E61
:10293800DFCFE7FF4B500D0D0C0EF326000EF422EF
:10294800330EF324D96E010EF420DA6EDF864B5075
:102958000D0D0C0EF326000EF422330EF324D96E5F
:10296800010EF420DA6EDF824B500D0D0C0EF326AB
:10297800000EF422330EF324D96E010EF420DA6E21
:10298800DF8A4B500D0D0C0EF326000EF422330E89
:10299800F324D96E010EF420DA6EDF80EE510E0DAD
:1029A800000EF324D96E030EF420DA6EDF5075ECB6
:1029B80021F04B500D0D330EF324D96E010EF42087
:1029C800DA6EDECF54F0DDCF55F058685968580EEE
:1029D8000001656F000E666F540E676F000E686F1A
:1029E80035EC1FF0000E4C6E4C50010D8E0EF3248A
:1029F800D96E010EF420DA6E010EDF6E4C2A4C50AF
:102A0800010D8E0EF324D96E010EF420DA6E32C158
:102A1800DFFF4C2A4B500D0D330EF32400019D6F40
:102A2800010EF4209E6F4B500D0D020EF326000E82
:102A3800F422330EF3249F6F010EF420A06F010ED1
:102A4800A16F080EA26F90EC1BF0C1EC1FF060C0E4
:102A5800E5F161C0E6F162C0E7F163C0E8F13AD0A0
:102A6800E9EC21F00009D8A40AEC22F0C1EC1FF02F
:102A780060C0E9F161C0EAF162C0EBF163C0ECF15A
:102A8800E5C1DDF1E6C1DEF1E7C1DFF1E8C1E0F162
:102A98000101DD1FDE1FDF1FE01FDD2B000EDE231F
:102AA800DF23E023E951DD25E16FEA51DE21E26F02
:102AB800EB51DF21E36FEC51E021E46FE45108E1D1
:102AC800210EE15DA10EE259070EE359D8A002D00C
:102AD800FF0E12004B500D0D0C0EF326000EF422C3
:102AE800330EF324D96E010EF420DA6E0101DFA84B
:102AF800B7D74B501200FF0E12008C9E030E000138
:102B0800736F000E746F000E756F000E766F1BD01A
:102B18009A0E6B6F020E6C6F000E6D6F000E6E6F6B
:102B28006B07000E6C5B6D5B6E5B6B29F9E16C29C2
:102B3800F7E16D29F5E16E29D8A4F2D77307000EE5
:102B4800745B755B765B7351741175117611D8A43B
:102B5800DFD78C8E0A0E776F000E786F000E796FB4
:102B6800000E7A6F1BD09A0E6F6F020E706F000EF8
:102B7800716F000E726F6F07000E705B715B725B96
:102B88006F29F9E17029F7E17129F5E17229D8A4D3
:102B9800F2D77707000E785B795B7A5B775178110B
:102BA80079117A11D8A4DFD7070E626F550E08EC99
:102BB80021F0540EEFEC20F000017D6F7DC06AF02B
:102BC800070E6A17D8A4F5D7000E7C6F000E7B6F2E
:102BD800E80E7B5D030E7C59D8B003D07B4B7C2B71
:102BE800F7D7010E626F1B0E08EC21F0FF0E0001F3
:102BF800626F070E08EC21F0FF0E0001626F090EEC
:102C080008EC21F0FF0E0001626F030E08EC21F0C2
:102C1800FF0E0001626F050E08EC21F0000E0001A6
:102C28007D6F070E7D6501D015D07D51010DF350E4
:102C380001012725D96EF4502821DA6EDF500001F2
:102C4800626F7D51020DF3500B0F08EC21F000016B
:102C58007D2BE7D7020E636F020E626F800E646FE2
:102C680094EC1FF0020E0001636F030E626F000EFA
:102C7800646F94EC1FF0020E0001636F060E626F22
:102C8800900E646F94EC1FF0020E0001636F070E44
:102C9800626F800E646F94EC1FF0020E0001636F88
:102CA800080E626F100E646F94EC1FF0020E0001A4
:102CB800636F200E626F210E646F94EC1FF0800E1C
:102CC8000001626F750E08EC21F0400E0001626F82
:102CD8007D0E08EC21F0600E0001626F7F0E08EC9B
:102CE80021F0980E0001626F310E08EC21F0950E6C
:102CF8000001626F5D0E08EC21F0020E0001636FA7
:102D08000F0E626F67EC1FF000017D6F7D51A00B05
:102D1800A00AD8A4F2D7E60E626F650E08EC21F07F
:102D2800020E0001636F000E626F030E646F94EC75
:102D38001FF0020E0001636F010E626F020E646FD6
:102D480094EC1FF0000E0001686F01012E516EEC2B
:102D580020F012000101C191020E4818D8A4D4D065
:102D6800C1B32ED0C1EC1FF060C0D7F161C0D8F15B
:102D780062C0D9F163C0DAF1000E0101C46F000E20
:102D8800C36F000E0001F86F070EF86501D014D06C
:102D9800F851010DF20EF324D96E020EF420DA6E0A
:102DA800F851010DC50EF324E16E010EF420E26E18
:102DB800DFCFE7FFF82BE8D70101C183C1911200EB
:102DC800C351C411D8B412005650C31904E1575066
:102DD800C419D8B412000B0E4C6E4C50010D8E0E57
:102DE800F324D96E010EF420DA6E000EDF6E4C2A41
:102DF8004C50010D8E0EF324D96E010EF420DA6EBC
:102E0800110EDF6E4C2A000E0001F86F070EF865F0
:102E180001D015D0F851010DF20EF324D96E020E2F
:102E2800F420DA6E4C50010D8E0EF324E16E010E83
:102E3800F420E26EDFCFE7FF4C2AF82BE7D74C509F
:102E4800010D8E0EF324D96E010EF420DA6E56C0F1
:102E5800DFFF4C2A4C50010D8E0EF324D96E010E63
:102E6800F420DA6E57C0DFFF4C2A000EF86F070E09
:102E7800F86501D014D0F851010DC50EF324D96EB0
:102E8800010EF420DA6EF851010D120EF324E16EF2
:102E9800010EF420E26EDFCFE7FFF82BE8D7C3C1BD
:102EA80058F0C4C159F006EC1EF00101C26FC229E6
:102EB800D8B40FD0C2510D0D0C0EF326000EF4221B
:102EC800330EF324D96E010EF420DA6EDF504D6E06
:102ED80004D08C0E4D6E58AE4D8054C0DBF155C0F9
:102EE800DCF1C1EC19F00101C26FC30E0001D96F0A
:102EF800010EDA6F000EDB6F000EDC6FEDEC0FF0E9
:102F08000101C193C1811200C1EC1FF060C0D7F16B
:102F180061C0D8F162C0D9F163C0DAF1000E596E10
:102F2800000E586E0B0E4C6E4C50010D8E0EF32495
:102F3800D96E010EF420DA6E000EDF6E4C2A4C506A
:102F4800010D8E0EF324D96E010EF420DA6E100EE8
:102F5800DF6E4C2A000E0001F86F070EF86501D0ED
:102F680015D0F851010DF20EF324D96E020EF4209B
:102F7800DA6E4C50010D8E0EF324E16E010EF42032
:102F8800E26EDFCFE7FF4C2AF82BE7D7580ED96F50
:102F9800000EDA6F000EDB6F000EDC6FEDEC0FF049
:102FA8000101C18312000001F66F010E0001EA6FF2
:102FB800000EEB6F000EEC6F000EED6F5AC0F7F0CD
:102FC800000EF86F090EF86501D00CD0F8510E0DFF
:102FD800000EF324D96E030EF420DA6EFF0EDF6EB6
:102FE800F82BF0D7000E4E6E4180000EF86FADD072
:102FF800F8C0DDF0EAC0DEF0EBC0DFF0ECC0E0F0D6
:10300800EDC0E1F0DD2B05D0D890DE37DF37E037B3
:10301800E137DD2FF9D7D951DE15E26FDA51DF1527
:10302800E36FDB51E015E46FDC51E115E56F000E4D
:10303800E215E66FF80EE315E76FFF0EE415E86F8B
:10304800070EE515E96FE651E711E811E911D8B463
:103058007BD0F85175EC21F0000E4C6E4C50010DF0
:103068008E0EF324D96E010EF420DA6E070EDF6E91
:103078004C2A4C50010D8E0EF324D96E010EF4200B
:10308800DA6E5AC0DFFF4C2A0101DB69DC69DB0E0E
:1030980000019D6F010E9E6F000E9F6F000EA06FC6
:1030A800010EA16F000EA26F90EC1BF0C1EC1FF097
:1030B80060C0EEF061C0EFF062C0F0F063C0F1F004
:1030C800E9EC21F00009D8A40AEC22F0C1EC1FF0C9
:1030D80060C0F2F061C0F3F062C0F4F063C0F5F0D4
:1030E800EEC0DDF0EFC0DEF0F0C0DFF0F1C0E0F0E0
:1030F8000001DD1FDE1FDF1FE01FDD2B000EDE23BA
:10310800DF23E023F251DD25E16FF351DE21E26F89
:10311800F451DF21E36FF551E021E46FF651040D1E
:10312800C70EF324F66EFE0EF420F76EE151090087
:10313800F55CE2510900F558E3510900F558E451EE
:103148000900F558D8B0BCD7F82B1F0EF86550D732
:10315800F75175EC21F041904E5012000001836F39
:1031680056685768120E556E340E546E000E0001E4
:10317800876F060E876501D010D087510D0D0C0E94
:10318800F326000EF422330EF324D96E010EF42038
:10319800DA6E000EDF6E872BECD7000E876F070EF6
:1031A800876501D016D08751010D200EF324D96E02
:1031B800020EF420DA6E000EDF6E8751010D0A0E42
:1031C800F324D96E010EF420DA6E000EDF6E872B21
:1031D800E6D7000E0101316F000E486E000E426EF8
:1031E800000E416E000EC16F000E326FD5EC21F05B
:1031F800000E4C6E000E0001846F8451870B40094D
:10320800846F848383B102D0849502D000018485C1
:10321800F20E856F020E866F84C07EF085C07FF047
:1032280086C080F094EC20F0560E0001656F000E09
:10323800666F540E676F000E686F35EC1FF05A50BA
:1032480075EC21F0010132814FC082F00001823B10
:103258000101325100018219CF0B82190101326F2D
:10326800328D48C082F000018247010132510001CD
:103278008219F90B82190101326FD6CF4AF0F0900A
:10328800F086010E1200F8EC1CF0BDEC21F0000EE7
:10329800B2EC18F00009D8A407D0680E0001616FDD
:1032A800FF0E626F85EC1EF00B0E75EC21F0000925
:1032B800D8A407D07D0E0001616FFF0E626F85EC08
:1032C8001EF0000E0001D96F080EDA6F000EDB6FDA
:1032D800000EDC6F0A0ED7EC17F00001FD6FFD51F0
:1032E800D8B42FD0000EFE6F15D0FE510E0D090E6A
:1032F800F326000EF422000EF324D96E030EF420F8
:10330800DA6E340EDE1805E1120EDE18D8B4FEC0EF
:10331800FCF0FE2BFD51FE5DD8A0E7D7000EF96F3B
:10332800FC51BFEC13F0FF0AD8A407D04C0E0001E3
:10333800616FFF0E626F85EC1EF0030E37EC21F013
:103348001200000E37EC21F0000E0001696F000E2C
:103358006A6F080E6B6F000E6C6F000E6D6F000EBB
:10336800C1EC1EF00009D8B41200D40E0001616F40
:10337800FF0E626F85EC1EF01200000169694DA412
:1033880003D0E9EC1AF004D04DA604D006EC1EF0E8
:103398000001696F6929D8A404D0B6EC20F00001B7
:1033A800696F6929D8B456D069510D0D0C0EF326F2
:1033B800000EF422330EF324D96E010EF420DA6ED7
:1033C8004DC0DFFF4DA428D0000E686F070E68655A
:1033D80001D022D06851010D120EF324D96E010ECE
:1033E800F420DA6E6851010D040EF326000EF42263
:1033F800330E666F010E676FF3506627F45067232C
:1034080069510D0DF3506625E16EF4506721E26EA7
:10341800DFCFE7FF682BDAD74DA610D069510D0D25
:10342800020EF326000EF422330EF324D96E010E99
:10343800F420DA6E58C0DEFF59C0DDFF69510D0D6A
:10344800330EF324D96E010EF420DA6EDBC1DEFFF1
:10345800DCC1DDFF69511200000E4C6E4C50010DAD
:103468008E0EF324D96E010EF420DA6EFF0EDF6E95
:103478004C2A4C50010D8E0EF324D96E010EF42007
:10348800DA6E32C1DFFF4C2A4C50010D8E0EF32448
:10349800D96E010EF420DA6E000EDF6E4C2A4C5005
:1034A800010D8E0EF324D96E010EF420DA6E000E93
:1034B800DF6E4C2A4C50010D8E0EF324D96E010E8E
:1034C800F420DA6E4D0EDF6E4C2A4C50010D8E0E34
:1034D800F324D96E010EF420DA6E410EDF6E4C2A09
:1034E8004C50010D8E0EF324D96E010EF420DA6EC5
:1034F80031C1DFFF4C2A540E00019D6F000E9E6FF4
:10350800000E9F6F000EA06F030EA16F040EA26F36
:1035180090EC1BF0120001012D51445CD8A004D09E
:103528004550435CD8B0120071B0FED701012D514F
:10353800445CD8B01AD04450010D1A0EF324D96E49
:10354800010EF420DA6EDF50756E442A2D514418AE
:10355800D8A412004550D8A412007184010E0E6E32
:103568002C0E0D6E6EEC1CF012004550435CD8B06A
:1035780012004350010DC80EF324D96E020EF42038
:10358800DA6EDF50D8A40AD04350010DC80EF324D8
:10359800D96E020EF420DA6E200EDF6E4350010D54
:1035A800C80EF324D96E020EF420DA6EDF50756E61
:1035B800432A45504318D8A412007184010E0E6E98
:1035C8002C0E0D6E6EEC1CF01200000E0001656FE3
:1035D800060E656501D04FD065510D0D0C0EF32612
:1035E800000EF422330EF324D96E010EF420DA6EA5
:1035F8000101DFAE3DD0000165510D0D0C0EF32623
:10360800000EF422330EF324D96E010EF420DA6E84
:103618000101DFA42DD0000E0001646F070E646560
:1036280001D024D06451010D120EF324D96E010E7D
:10363800F420DA6E6451010D040EF326000EF42214
:10364800330E616F010E626FF3506127F4506223ED
:1036580065510D0DF3506125E16EF4506221E26E63
:10366800DE50E618D8A404D0642BD8D765511200D0
:103678000001652BADD7FF0E120047EC19F0F1ECF5
:1036880021F0000E0001686F000E80EC1DF0210E85
:103698000001616FFF0E626F85EC1EF0A4AAFED7D1
:1036A800000E0101FA6F000EF96FD4EC20F0010151
:1036B800FB6F10D0EF0EF925D96E010EFA21DA6EE4
:1036C800FBC1DFFFA4AAFED7D4EC20F00101FB6FF9
:1036D800F94BFA2B0D0EFB19D8A4ECD7EF0EF925F0
:1036E800D96E010EFA21DA6E000EDF6EE30E0001CC
:1036F800616FFF0E626F85EC1EF0EF0E0001616FC7
:10370800010E626F85EC1EF0F20E0001616FFF0E74
:10371800626F85EC1EF0FFD7000E3A6E3A5000013A
:10372800A119FC0BA1193A6E9F51A011D8B43A8483
:103738003AB403D0A36BA32B02D00001A36BA33B25
:10374800A3473A50A319DF0BA3193A6E3A8E9FC0CC
:103758003BF0A0C03CF0A2A702D0010E01D0000EA1
:103768003D6EA2A502D0010E01D0000E3E6E9DC096
:10377800D9FF9EC0DAFFDF503F6E20EE01F09D5169
:10378800D9269E51DA22DF50406E20EE3AF000EE44
:103798007EF0060EDBCFEBFFE806FCE28E0E856FAF
:1037A800010E866F4CC087F0DAEC11F012000001B0
:1037B8007A6F7AC060F0D65020EC21F000017B6F60
:1037C8003CD07B07C1EC1FF060C072F061C073F0A1
:1037D80062C074F063C075F0C1EC1FF060C076F091
:1037E80061C077F062C078F063C079F072C06AF0A7
:1037F80073C06BF074C06CF075C06DF000016A1F87
:103808006B1F6C1F6D1F6A2B000E6B236C236D23BF
:1038180076516A256E6F77516B216F6F78516C21E5
:10382800706F79516D21716F7151701106E1F50E4C
:103838006E5D010E6F59D8A0CFD77B51D8B4120056
:10384800C0D7000E00016E6F000E6F6F000E706F14
:10385800000E716F6CC060F06DC061F0626B636BDD
:10386800A00E646F0F0E656F000E666F000E676F17
:10387800EEEC1FF060C06EF061C06FF062C070F0D7
:1038880063C071F0560E00016E27FF0E6F23FF0E06
:103898007023FF0E712371BF1200715170116F11E7
:1038A8000FE1C40E6E5DD8A012000AD000F0D90E48
:1038B80000016E27FF0E6F23FF0E7023FF0E71238A
:1038C80071BF1200715170116F11F0E16E05D8A02F
:1038D8001200ECD7000E0F6E000E106E000E116E67
:1038E800000E126E0DC001F00EC002F0036A046AE9
:1038F800A00E056E0F0E066E000E076E000E086E07
:103908001AEC20F001C00FF002C010F003C011F053
:1039180004C012F0560E0F26FF0E1022FF0E1122C1
:10392800FF0E122212BE12001250111010100EE1DA
:10393800C40E0F5CD8A0120009D000F0D90E0F26D3
:10394800FF0E1022FF0E1122FF0E122212BE1200CD
:10395800125011101010F1E10F04D8A01200EDD789
:10396800C00EF66E430EF76E000EF86E02EEE9F02A
:1039780010EE11F00900F5CFEEFFE550E150FAE145
:10398800200EF66E440EF76E000EF86E0900F5CFA5
:10399800FCF11C0EF66E440EF76E000EF86E090070
:1039A800F5CF5BF00900F5CF5CF003EE00F08C0E6C
:1039B800EE6AE806FDE102EE00F0E90EEE6AE806BE
:1039C800FDE101EE00F0DD0EEE6AE806FDE100EE35
:1039D8002FF02C0EEE6AE806FDE15D905D92000E78
:1039E800F86E000141EF1BF0780ED36EC0909B8CEF
:1039F800000EF26E550EA76EAA0EA76E0E01FF916D
:103A0800040EE76F130EF66F050ED76F550EA76EEF
:103A1800AA0EA76EFF810F0148693F0E496FF19EFC
:103A280092689368946895689668000E896E000E8F
:103A38008A6E000E8C6E000E8D6E93809384929425
:103A4800929693968A86959E8C8E9382938A949E5C
:103A58009398C00EC76E210EC66E95968C86F19A05
:103A680094948B84F28EF090F08647EC1EF012004E
:103A7800040E01018E6F020E8F6F54C090F155C075
:103A880091F1AEC0D9FFAFC0DAFFDF50926F0001ED
:103A980020EE01F0AE51D926AF51DA22DF500101F4
:103AA800936F54C094F155C095F156C096F157C024
:103AB80097F14AC098F14A2AAEC0D9FFAFC0DAFFE1
:103AC800DF50586E000120EE01F0AE51D926AF51FB
:103AD800DA22DF50596E54C0A4F055C0A5F058C082
:103AE800A6F059C0A7F0000EA86FC2EC0DF00009AF
:103AF800D8A41200419612000001726F22EEE9F07C
:103B080010EE69F0080EDBCFE3FFE806FCE272C0B6
:103B180060F00001616B000E636F0A0E626FC3EC08
:103B28001DF0000160516B2772C060F0616B000EE0
:103B3800636F0A0E626FFCEC1EF0000160516C2787
:103B480068C060F0616B000E636F0A0E626FC3ECB1
:103B58001DF0000160516D2768C060F0616B000EB8
:103B6800636F0A0E626FFCEC1EF0000160516E2755
:103B7800690E616F000E626F85EC1EF01200000E78
:103B88000001656F63AF06D0626D631FD8B0632B09
:103B9800010E656F61AF06D0606D611FD8B0612BF3
:103BA800010E651B000E676F000E666F6251631190
:103BB800D8B41CD0010E646F04D0D8906237633734
:103BC800642B63AFFAD7D890663767376251605D68
:103BD80063516159D8A005D06251605F6351615B40
:103BE8006681D89063336233642FEDD76551D8B4BA
:103BF80004D0666D671FD8B0672B66C060F067C0D9
:103C080061F01200000E0001626F060E626501D0BD
:103C180038D062510D0D0C0EF326000EF422330E2F
:103C2800F324D96E010EF420DA6E0101DFAE26D03E
:103C3800000162510D0D0C0EF326000EF422330E16
:103C4800F324D96E010EF420DA6E0101DFA616D036
:103C5800000162510D0D020EF326000EF422330E00
:103C6800F324D96E010EF420DA6E5850DE1806E1FE
:103C78005950DE18D8A402D0625112000001622BFC
:103C8800C4D7FF0E1200530E9512A49E000E736E39
:103C9800F00E746E280E726E000E716EA38EF28E88
:103CA800F28C010E00016D6F2C0E6C6F25EC1CF070
:103CB8007C0E01011A6F810E1B6F000E1C6F000E27
:103CC8000001606F030E86EC21F0000E00016D6F9D
:103CD800C80E6C6F25EC1CF07C0E01011A6F510E9A
:103CE8001B6F080E1C6F000E0001606F030E86EC40
:103CF80021F0000E00016D6FC80E6C6F25EC1CF0F2
:103D08001200000E0001666F000E656F1CD00001E6
:103D180065516125636F66516221646F63C0F6FF68
:103D280064C0F7FFF86A0E0EF76403D00800F55078
:103D380005D0F6CFE9FFF7CFEAFFEF50F9EC21F015
:103D48000001654B662B65516125636F66516221E1
:103D5800646F63C0F6FF64C0F7FFF86A0E0EF7647D
:103D680003D00800F55005D0F6CFE9FFF7CFEAFFFA
:103D7800EF500009D8B41200CAD700016F6F2BD0DA
:103D8800000E576E000E566E4B68120E556E340EAE
:103D9800546E560E0001656F000E666F540E676F05
:103DA800000E686F35EC1FF04182020E486E48C065
:103DB8006EF000016E470101325100016E19F90BD6
:103DC8006E190101326F010E316F010E1200000EE3
:103DD8001200000E120000016F51000AD8B4D0D7AB
:103DE800010AD8B4F4D7030AD8B4F3D7000E1200E6
:103DF800000E0001656F61AF06D0606D611FD8B01D
:103E0800612B010E656F63AF04D0626D631FD8B07C
:103E1800632B62516311D8B418D0010E646F04D0BB
:103E2800D89062376337642B63AFFAD76251605D0D
:103E380063516159D8A004D06251605F6351615BDE
:103E4800D89063336233642FF1D76551D8B404D066
:103E5800606D611FD8B0612B60C060F061C061F017
:103E6800120065C0D9FF66C0DAFFDF50506E00014E
:103E780020EE01F06551D9266651DA22DF50516EE5
:103E880067C0D9FF68C0DAFFDF50526E20EE01F03C
:103E98006751D9266851DA22DF50536E50C062F05C
:103EA800070E08EC21F051C062F0090E08EC21F071
:103EB80052C062F0030E08EC21F053C062F0050E08
:103EC80008EC21F01200000EF0B6010E0001676F39
:103ED800F0968A9662C064F063C065F0D890653346
:103EE8006433D89065336433D89065336433645150
:103EF8007F0B800994EC21F000016239E846E00B61
:103F0800E00B94EC21F000EC22F00001666F8A8649
:103F180067B102D0F09601D0F08600016651120018
:103F2800000EF0B6010E0001676FF0968A9662C027
:103F380065F063C066F0D89066336533D890663311
:103F48006533D8906633653365517F0B800994ECEF
:103F580021F000016239E846E00BE00B100994EC0F
:103F680021F00001645194EC21F08A86000167B1C8
:103F780002D0F09601D0F08612009D90000E00014C
:103F8800686F000E696F000E656FCECF66F0CFCFF9
:103F980067F0662909E16729D8A406D0652B65056D
:103FA800646F020E6465F1D79EA004D0682B472881
:103FB800D8B4692B4750682701013051000169279F
:103FC8009D8066C060F067C061F068C062F069C03B
:103FD80063F01200000E0001686F000E696F000E9A
:103FE8006A6F000E6B6F60A108D064516827655135
:103FF800692366516A2367516B23D8906437653704
:1040080066376737D8906333623361336033605102
:10401800611162116311D8A4E6D768C060F069C065
:1040280061F06AC062F06BC063F01200000E096EA6
:10403800000E0A6E000E0B6E000E0C6E01A008D06A
:104048000550092606500A2207500B2208500C2258
:10405800D8900536063607360836D890043203322B
:10406800023201320150021003100410D8A4E6D71E
:1040780009C001F00AC002F00BC003F00CC004F044
:104088001200000EF0B6010E086EF0968A9603C074
:1040980005F004C006F0D89006320532D8900632F2
:1040A8000532D8900632053205507F0B8009B0ECF6
:1040B80021F00338E846E00BE00BB0EC21F005EC0A
:1040C80022F0076E8A8608B002D0F09601D0F086FA
:1040D800075012000001696F0A0E0001696503D0DC
:1040E8001A0E696502D0000E120069C02EF1020E88
:1040F800636F000E626F6939F00B500F0309646F2C
:1041080094EC1FF0040E0001626F6D0E08EC21F0B4
:10411800000E0001626F6D0E08EC21F0010E120016
:104128007EC026F17FC027F180C028F1D6CF2FF1BD
:104138000B0E01012E6F81EC15F0000E466E000E7D
:104148000001816F010E816501D012008151500D6F
:10415800280EF324D96E020EF420DA6E000EDF6EFC
:10416800812BF0D7000E0001606F060E606501D04C
:1041780015D060510D0D0C0EF326000EF422330EEF
:10418800F324D96E010EF420DA6E0101DFBE03D0EC
:104198000001605112000001602BE7D7FF0E1200EA
:1041A8009CA202D09C989C88AACF61F00001615122
:1041B800F9EC21F0080E00016119D8B40FEC22F0D7
:1041C8000D0E00016119D8A403D00A0EF9EC21F0F4
:1041D8000001615112000001626F000EF0B6010E7D
:1041E8000001646FF0968A96625194EC21F000EC1D
:1041F80022F00001636F8A8664B102D0F09601D084
:10420800F0860001635112000001636F000EF0B6E2
:10421800010E0001646FF0968A96635194EC21F0C8
:104228000001625194EC21F08A86000164B102D049
:10423800F09601D0F08612000001616F080E0001AF
:10424800626F000E636FD89061356335636FD890E5
:1042580061376051635DD8A002D06051635F622FFF
:10426800F2D7635112000001616F030E000161650E
:1042780001D0120061C04FF04FC060F0603B0101F7
:10428800325100016019CF0B60190101326F120021
:10429800036E000EF0B6010E056EF0968A96035076
:1042A800B0EC21F005EC22F0046E8A8605B002D04D
:1042B800F09601D0F08604501200046E000EF0B69D
:1042C800010E056EF0968A960450B0EC21F003506A
:1042D800B0EC21F08A8605B002D0F09601D0F086C5
:1042E800120000016A6F000E0001686F6A516EECDF
:1042F80020F00009D8B404D06AC05AF0010E1200A8
:10430800000E12000001616F71B4FED7000E446EFA
:10431800000E436E61C02DF160C045F0718012003F
:104328000001616F9E96C9CF60F0C69E61C0C9FF4B
:10433800C6BEFBD79EA6FED79E961200020E5B60F5
:1043480012005B50500D280EF324D96E020EF42093
:10435800DA6E000EDF6E1200026E9E96C9CF01F073
:10436800C69E02C0C9FFC6BEFBD79EA6FED79E96B4
:104378001200949C95847E96000E7D6E330EAB6E73
:10438800240EA86E900E9C6E1200A4AE1200A49E7D
:104398008FEC1AF0000E0E6E050E0D6E6EEC1CF012
:1043A8001200380ECD6E9E909D80CD80000E476E17
:1043B800000E0101306F12001B5B30303B3030665D
:0943C80000001122334455664245
:1043D2000BEC01F041A402D0010E1200000E1200FB
:1043E200ED0E0001616FFF0E626F85EC1EF0120090
:1043F2000001606FA8A2FED760C0A9FF1200000EE4
:1044020094EC21F0C9501200000EB0EC21F0C9501A
:0F44120012004194A2EC21F01200FF041200FFEF
:10FEC60000C0030000A005000060090000E010006B
:10FED60000E01F0000E03D0000E0790000E0F100D6
:10FEE60000E0E10100E0C10300E0810700E0010F4E
:10FEF60000E0011E00443D1B000DB4150001000882
:10FF060000400000020010008001000A006400E8C2
:10FF16000310270100100000010010456E74726581
:10FF26007A20766F7472652070736575646F202809
:10FF36003820636172616374E8726573206D61785D
:10FF46006929203A20000A45727265757220457348
:10FF56007461626C697368436F6E6E656374696F12
:10FF66006E000A4572726575722050726F746F6307
:10FF76006F6C496E6974000A45727265757220531A
:10FF860065744368616E6E656C00303132333435AA
:10FF960036373839414243444546003031323334EE
:10FFA6003536373839616263646566005258204DCC
:10FFB600657373616765733A20253364005458206E
:10FFC6004D657373616765733A20253364000A4390
:10FFD600616E6E616C206F7576657274000A426F91
:10FFE6006E6A6F757220001B5B324A00200D0A0094
:01FFF600000A
:08FFF800ACF5DDFFFFF9FFF19C
:00000001FF
